{
  "_format": "hh-sol-artifact-1",
  "contractName": "Rocket",
  "sourceName": "contracts/Rocket.sol",
  "abi": [
    {
      "inputs": [
        {
          "internalType": "string",
          "name": "_name",
          "type": "string"
        }
      ],
      "stateMutability": "nonpayable",
      "type": "constructor"
    },
    {
      "inputs": [],
      "name": "launch",
      "outputs": [],
      "stateMutability": "nonpayable",
      "type": "function"
    },
    {
      "inputs": [],
      "name": "name",
      "outputs": [
        {
          "internalType": "string",
          "name": "",
          "type": "string"
        }
      ],
      "stateMutability": "view",
      "type": "function"
    },
    {
      "inputs": [],
      "name": "status",
      "outputs": [
        {
          "internalType": "string",
          "name": "",
          "type": "string"
        }
      ],
      "stateMutability": "view",
      "type": "function"
    }
  ],
  "bytecode": "0x608060405234801561001057600080fd5b506040516105c93803806105c983398101604081905261002f91610085565b600061003b82826101da565b5060408051808201909152600881526734b3b734ba34b7b760c11b602082015260019061006890826101da565b5050610298565b634e487b7160e01b600052604160045260246000fd5b60006020828403121561009757600080fd5b81516001600160401b038111156100ad57600080fd5b8201601f810184136100be57600080fd5b80516001600160401b038111156100d7576100d761006f565b604051601f8201601f19908116603f011681016001600160401b03811182821017156101055761010561006f565b60405281815282820160200186101561011d57600080fd5b60005b8281101561013c57602081850181015183830182015201610120565b50600091810160200191909152949350505050565b600181811c9082168061016557607f821691505b60208210810361018557634e487b7160e01b600052602260045260246000fd5b50919050565b601f8211156101d557806000526020600020601f840160051c810160208510156101b25750805b601f840160051c820191505b818110156101d257600081556001016101be565b50505b505050565b81516001600160401b038111156101f3576101f361006f565b610207816102018454610151565b8461018b565b6020601f82116001811461023b57600083156102235750848201515b600019600385901b1c1916600184901b1784556101d2565b600084815260208120601f198516915b8281101561026b578785015182556020948501946001909201910161024b565b50848210156102895786840151600019600387901b60f8161c191681555b50505050600190811b01905550565b610322806102a76000396000f3fe608060405234801561001057600080fd5b50600436106100415760003560e01c806301339c211461004657806306fdde0314610050578063200d2ed21461006e575b600080fd5b61004e610076565b005b6100586100a5565b6040516100659190610140565b60405180910390f35b610058610133565b6040805180820190915260088152673634b33a16b7b33360c11b60208201526001906100a2908261022d565b50565b600080546100b2906101a4565b80601f01602080910402602001604051908101604052809291908181526020018280546100de906101a4565b801561012b5780601f106101005761010080835404028352916020019161012b565b820191906000526020600020905b81548152906001019060200180831161010e57829003601f168201915b505050505081565b600180546100b2906101a4565b602081526000825180602084015260005b8181101561016e5760208186018101516040868401015201610151565b506000604082850101526040601f19601f83011684010191505092915050565b634e487b7160e01b600052604160045260246000fd5b600181811c908216806101b857607f821691505b6020821081036101d857634e487b7160e01b600052602260045260246000fd5b50919050565b601f82111561022857806000526020600020601f840160051c810160208510156102055750805b601f840160051c820191505b818110156102255760008155600101610211565b50505b505050565b815167ffffffffffffffff8111156102475761024761018e565b61025b8161025584546101a4565b846101de565b6020601f82116001811461028f57600083156102775750848201515b600019600385901b1c1916600184901b178455610225565b600084815260208120601f198516915b828110156102bf578785015182556020948501946001909201910161029f565b50848210156102dd5786840151600019600387901b60f8161c191681555b50505050600190811b0190555056fea26469706673582212202be066a178938a462894552756ccaede04cd6cfc075104047392705d40f2688464736f6c634300081c0033",
  "linkReferences": {},
  "deployedLinkReferences": {}
}