{
  "_format": "hh-sol-artifact-1",
  "contractName": "CampaignFactory",
  "sourceName": "contracts/CampaignFactory.sol",
  "abi": [
    {
      "anonymous": false,
      "inputs": [
        {
          "indexed": true,
          "internalType": "address",
          "name": "campaignAddress",
          "type": "address"
        },
        {
          "indexed": true,
          "internalType": "address",
          "name": "owner",
          "type": "address"
        }
      ],
      "name": "CampaignCreated",
      "type": "event"
    },
    {
      "inputs": [
        {
          "internalType": "uint256",
          "name": "",
          "type": "uint256"
        }
      ],
      "name": "campaigns",
      "outputs": [
        {
          "internalType": "address",
          "name": "",
          "type": "address"
        }
      ],
      "stateMutability": "view",
      "type": "function"
    },
    {
      "inputs": [
        {
          "internalType": "string",
          "name": "_title",
          "type": "string"
        },
        {
          "internalType": "string",
          "name": "_description",
          "type": "string"
        },
        {
          "internalType": "uint256",
          "name": "_goal",
          "type": "uint256"
        }
      ],
      "name": "createCampaign",
      "outputs": [],
      "stateMutability": "nonpayable",
      "type": "function"
    },
    {
      "inputs": [],
      "name": "getAllCampaigns",
      "outputs": [
        {
          "internalType": "address[]",
          "name": "",
          "type": "address[]"
        }
      ],
      "stateMutability": "view",
      "type": "function"
    }
  ],
  "bytecode": "0x6080604052348015600f57600080fd5b50610bcc8061001f6000396000f3fe608060405234801561001057600080fd5b50600436106100415760003560e01c8063141961bc1461004657806386cdf60414610076578063ffa56a571461008b575b600080fd5b6100596100543660046101f3565b6100a0565b6040516001600160a01b0390911681526020015b60405180910390f35b61007e6100ca565b60405161006d919061020c565b61009e6100993660046102fd565b61012c565b005b600081815481106100b057600080fd5b6000918252602090912001546001600160a01b0316905081565b6060600080548060200260200160405190810160405280929190818152602001828054801561012257602002820191906000526020600020905b81546001600160a01b03168152600190910190602001808311610104575b5050505050905090565b60003384848460405161013e906101e6565b61014b94939291906103b6565b604051809103906000f080158015610167573d6000803e3d6000fd5b50600080546001810182558180527f290decd9548b62a8d60345a988386fc84ba6bc95484008f6362f93160ef3e5630180546001600160a01b0319166001600160a01b038416908117909155604051929350339290917f6056366dba45431fd6a8854ad9f2594942b02c4f2c3f6fbc329b3079b027b8b491a350505050565b610798806103ff83390190565b60006020828403121561020557600080fd5b5035919050565b602080825282518282018190526000918401906040840190835b8181101561024d5783516001600160a01b0316835260209384019390920191600101610226565b509095945050505050565b634e487b7160e01b600052604160045260246000fd5b600082601f83011261027f57600080fd5b813567ffffffffffffffff81111561029957610299610258565b604051601f8201601f19908116603f0116810167ffffffffffffffff811182821017156102c8576102c8610258565b6040528181528382016020018510156102e057600080fd5b816020850160208301376000918101602001919091529392505050565b60008060006060848603121561031257600080fd5b833567ffffffffffffffff81111561032957600080fd5b6103358682870161026e565b935050602084013567ffffffffffffffff81111561035257600080fd5b61035e8682870161026e565b93969395505050506040919091013590565b6000815180845260005b818110156103965760208185018101518683018201520161037a565b506000602082860101526020601f19601f83011685010191505092915050565b6001600160a01b03851681526080602082018190526000906103da90830186610370565b82810360408401526103ec8186610370565b9150508260608301529594505050505056fe608060405234801561001057600080fd5b5060405161079838038061079883398101604081905261002f91610129565b600080546001600160a01b0319166001600160a01b03861617905560016100568482610242565b5060026100638382610242565b5060035550610300915050565b634e487b7160e01b600052604160045260246000fd5b600082601f83011261009757600080fd5b81516001600160401b038111156100b0576100b0610070565b604051601f8201601f19908116603f011681016001600160401b03811182821017156100de576100de610070565b6040528181528382016020018510156100f657600080fd5b60005b82811015610115576020818601810151838301820152016100f9565b506000918101602001919091529392505050565b6000806000806080858703121561013f57600080fd5b84516001600160a01b038116811461015657600080fd5b60208601519094506001600160401b0381111561017257600080fd5b61017e87828801610086565b604087015190945090506001600160401b0381111561019c57600080fd5b6101a887828801610086565b606096909601519497939650505050565b600181811c908216806101cd57607f821691505b6020821081036101ed57634e487b7160e01b600052602260045260246000fd5b50919050565b601f82111561023d57806000526020600020601f840160051c8101602085101561021a5750805b601f840160051c820191505b8181101561023a5760008155600101610226565b50505b505050565b81516001600160401b0381111561025b5761025b610070565b61026f8161026984546101b9565b846101f3565b6020601f8211600181146102a3576000831561028b5750848201515b600019600385901b1c1916600184901b17845561023a565b600084815260208120601f198516915b828110156102d357878501518255602094850194600190920191016102b3565b50848210156102f15786840151600019600387901b60f8161c191681555b50505050600190811b01905550565b6104898061030f6000396000f3fe6080604052600436106100705760003560e01c80636681b9fd1161004e5780636681b9fd146100d75780637284e416146100ed5780638da5cb5b14610102578063ed88c68e1461013a57600080fd5b80633ccfd60b14610075578063401938831461008c5780634a79d50c146100b5575b600080fd5b34801561008157600080fd5b5061008a610142565b005b34801561009857600080fd5b506100a260035481565b6040519081526020015b60405180910390f35b3480156100c157600080fd5b506100ca610274565b6040516100ac91906103a4565b3480156100e357600080fd5b506100a260045481565b3480156100f957600080fd5b506100ca610302565b34801561010e57600080fd5b50600054610122906001600160a01b031681565b6040516001600160a01b0390911681526020016100ac565b61008a61030f565b6000546001600160a01b031633146101a15760405162461bcd60e51b815260206004820152601760248201527f4f6e6c79206f776e65722063616e20776974686472617700000000000000000060448201526064015b60405180910390fd5b6000600454116101ea5760405162461bcd60e51b81526020600482015260146024820152734e6f2066756e647320746f20776974686472617760601b6044820152606401610198565b60048054600091829055815460405191926001600160a01b039091169183156108fc0291849190818181858888f1935050505015801561022e573d6000803e3d6000fd5b506000546040518281526001600160a01b03909116907f06a0982d8b0bd87e1ae43f31a116ca52b1353fbc3dc30a1a97cf143da800cb0d9060200160405180910390a250565b60018054610281906103f2565b80601f01602080910402602001604051908101604052809291908181526020018280546102ad906103f2565b80156102fa5780601f106102cf576101008083540402835291602001916102fa565b820191906000526020600020905b8154815290600101906020018083116102dd57829003601f168201915b505050505081565b60028054610281906103f2565b600034116103565760405162461bcd60e51b815260206004820152601460248201527326bab9ba1039b2b7321039b7b6b29032ba3432b960611b6044820152606401610198565b3460046000828254610368919061042c565b909155505060405134815233907f264f630d9efa0d07053a31163641d9fcc0adafc9d9e76f1c37c2ce3a558d2c529060200160405180910390a2565b602081526000825180602084015260005b818110156103d257602081860181015160408684010152016103b5565b506000604082850101526040601f19601f83011684010191505092915050565b600181811c9082168061040657607f821691505b60208210810361042657634e487b7160e01b600052602260045260246000fd5b50919050565b8082018082111561044d57634e487b7160e01b600052601160045260246000fd5b9291505056fea2646970667358221220b7578b51285b0c2e90ff2b57280d61d822ee52c252da3a12da806d2d17b5dccc64736f6c634300081c0033a26469706673582212209879d62e059c4faf4a00d7cab36b22a811aae56e818636a1824fc9698e7214cb64736f6c634300081c0033",
  "linkReferences": {},
  "deployedLinkReferences": {}
}